:100000000C945D000C9485000C9485000C94850084
:100010000C9485000C9485000C9485000C9485004C
:100020000C9485000C9485000C9485000C9485003C
:100030000C9485000C9485000C9485000C9485002C
:100040000C94D5020C9485000C94A3020C947D02B0
:100050000C9485000C9485000C9485000C9485000C
:100060000C9485000C94850000000008000201003B
:100070000003040700000000000000000000000072
:10008000250028002B0000000000240027002A0083
:10009000040404040404040402020202020203032E
:1000A0000303030301020408102040800102040836
:1000B00010200102040810203E0411241FBECFEFBF
:1000C000D8E0DEBFCDBF11E0A0E0B1E0E4E3F9E0AD
:1000D00002C005900D92A034B107D9F721E0A0E449
:1000E000B1E001C01D92A63EB207E1F710E0CDE5F8
:1000F000D0E004C02197FE010E948D04CC35D107C9
:10010000C9F70E941F030C9498040C94000090E01F
:10011000FC01EC55FF4F2491FC01E057FF4F849107
:10012000882399F090E0880F991FFC01EA57FF4F50
:10013000A591B491FC01E458FF4F859194918FB73C
:10014000F894EC91E22BEC938FBF0895CF92DF925D
:10015000EF92FF920F931F93CF93DF936C017A017D
:100160008B01C0E0D0E0CE15DF0589F0D8016D919C
:100170008D01D601ED91FC910190F081E02DC60139
:100180000995892B11F47E0102C02196ECCFC7019D
:10019000DF91CF911F910F91FF90EF90DF90CF9063
:1001A0000895089580E090E00895FC01538D448DFA
:1001B000252F30E0842F90E0821B930B541710F012
:1001C000CF96089501970895FC01918D828D98171F
:1001D00061F0828DDF01A80FB11D5D968C91928D2B
:1001E0009F5F9F73928F90E008958FEF9FEF089528
:1001F000FC01918D828D981731F0828DE80FF11DF1
:10020000858D90E008958FEF9FEF0895FC01918D0B
:10021000228D892F90E0805C9F4F821B91098F7304
:100220009927089589E491E00E94060121E0892B35
:1002300009F420E0822F0895FC01848DDF01A80FCE
:10024000B11DA35ABF4F2C91848D90E001968F73FE
:100250009927848FA689B7892C93A089B1898C911D
:1002600080648C93938D848D981306C00288F389E3
:10027000E02D80818F7D80830895EF92FF920F9310
:100280001F93CF93DF93EC0181E0888F9B8D8C8D42
:10029000981305C0E889F989808185FD24C0F62E70
:1002A0000B8D10E00F5F1F4F0F731127E02E8C8D09
:1002B000E8120CC00FB607FCFACFE889F9898081F3
:1002C00085FFF5CFCE010E941C01F1CF8B8DFE0181
:1002D000E80FF11DE35AFF4FF0820B8FEA89FB898B
:1002E0008081806207C0EE89FF896083E889F9898F
:1002F00080818064808381E090E0DF91CF911F91C5
:100300000F91FF90EF900895CF93DF93EC01888DCC
:100310008823C9F0EA89FB89808185FD05C0A88909
:10032000B9898C9186FD0FC00FB607FCF5CF80818F
:1003300085FFF2CFA889B9898C9185FFEDCFCE01D9
:100340000E941C01E7CFDF91CF91089580E090E0FB
:10035000892B29F00E94120181110C94000008954C
:1003600090E0FC01E859FF4F3491FC01EC55FF4F40
:100370002491FC01E057FF4FE491EE2309F43BC0C8
:10038000332339F1333091F038F43130A9F0323081
:1003900001F584B58F7D12C0373091F03830A1F06F
:1003A0003430B9F4809180008F7D03C0809180004B
:1003B0008F77809380000DC084B58F7784BD09C08E
:1003C0008091B0008F7703C08091B0008F7D8093C3
:1003D000B000F0E0EE0FFF1FE458FF4FA591B4917D
:1003E0008FB7F894EC91611103C020952E2301C0C2
:1003F0002E2B2C938FBF08953FB7F8948091450121
:1004000090914601A0914701B091480126B5A89B63
:1004100005C02F3F19F00196A11DB11D3FBFBA2F96
:10042000A92F982F8827820F911DA11DB11DBC01F6
:10043000CD0142E0660F771F881F991F4A95D1F7BB
:1004400008958F929F92AF92BF92CF92DF92EF92D8
:10045000FF926B017C010E94FC014B015C01C11405
:10046000D104E104F104F1F00E94FC01DC01CB01B4
:1004700088199909AA09BB09883E9340A105B105CD
:1004800070F321E0C21AD108E108F10888EE880E65
:1004900083E0981EA11CB11CC114D104E104F10435
:1004A00019F7DDCFFF90EF90DF90CF90BF90AF9026
:1004B0009F908F900895009769F0FC0101900020B3
:1004C000E9F73197AF01481B590BBC0189E491E072
:1004D0000C94A60080E090E00895CF93DF930E94F3
:1004E0005B02EC0182E191E00E945B028C0F9D1F98
:1004F000DF91CF9108950E9493041F920F920FB63F
:100500000F9211242F933F934F935F936F937F9399
:100510008F939F93AF93BF93EF93FF9389E491E001
:100520000E941C01FF91EF91BF91AF919F918F911C
:100530007F916F915F914F913F912F910F900FBEDF
:100540000F901F9018951F920F920FB60F921124C3
:100550002F938F939F93EF93FF93E0915901F09125
:100560005A018081E0915F01F091600182FD12C02B
:100570009081809162018F5F8F7320916301821758
:1005800051F0E0916201F0E0E75BFE4F958F8093C0
:10059000620101C08081FF91EF919F918F912F9116
:1005A0000F900FBE0F901F9018951F920F920FB6CD
:1005B0000F9211242F933F938F939F93AF93BF93E9
:1005C0008091410190914201A0914301B091440179
:1005D0003091400123E0230F2D3720F40196A11D17
:1005E000B11D05C026E8230F0296A11DB11D209361
:1005F00040018093410190934201A0934301B09345
:1006000044018091450190914601A0914701B0912C
:1006100048010196A11DB11D8093450190934601AB
:10062000A0934701B0934801BF91AF919F918F91E3
:100630003F912F910F900FBE0F901F901895CF9361
:10064000DF93CDB7DEB7A1970FB6F894DEBF0FBE2C
:10065000CDBF789484B5826084BD84B5816084BD4B
:1006600085B5826085BD85B5816085BD80916E0050
:10067000816080936E001092810080918100826081
:1006800080938100809181008160809381008091BE
:1006900080008160809380008091B10084608093AD
:1006A000B1008091B00081608093B00080917A00A9
:1006B000846080937A0080917A00826080937A00CF
:1006C00080917A00816080937A0080917A008068BE
:1006D00080937A001092C100E0915901F0915A0183
:1006E00082E08083E0915501F09156011082E09103
:1006F0005701F09158018FEC808310926101E091D5
:100700005D01F0915E0186E08083E0915B01F091F4
:100710005C01808180618083E0915B01F0915C01EC
:10072000808188608083E0915B01F0915C01808131
:1007300080688083E0915B01F0915C0180818F7D16
:10074000808385E191E00E946D028DE00E94870028
:100750008CE00E94870061E08DE00E94B00160E0C3
:100760008CE00E94B00168EB7BE080E090E00E94AA
:10077000210280E4D82E9AE0892E912CA12CB12C54
:10078000D0927C0080917A00806480937A0080917E
:100790007A0086FDFCCF009178008091790010E00E
:1007A000182B2801012E000C6608770860E00D392F
:1007B000110564F08DE00E94B00161E08CE00E94C0
:1007C000B0018EE291E00E946D0233C08CE00E9485
:1007D000B00161E08DE00E94B00187E391E00E94EA
:1007E0006D0217FF26C0E0914901F0914A01019086
:1007F000F081E02D6DE289E491E00995222733270D
:10080000A901241935094609570919A2CE01819673
:100810007C01CA01B901A50194010E946B04605DCD
:10082000F70162937F01211531054105510589F7D3
:1008300015C0A301920119A2CE0181967C01CA01C3
:10084000B901A50194010E946B04605DF7016293F8
:100850007F01211531054105510589F7C7010E9426
:100860005B0282E191E00E945B0264EF71E080E054
:1008700090E00E9421020E94A60182CFE9E4F1E00B
:100880001382128288EE93E0A0E0B0E08483958327
:10089000A683B78384E091E09183808385EC90E028
:1008A0009587848784EC90E09787868780EC90E03A
:1008B000918B808B81EC90E0938B828B82EC90E02B
:1008C000958B848B86EC90E0978B868B118E128EA5
:1008D000138E148E0895A1E21A2EAA1BBB1BFD01D4
:1008E0000DC0AA1FBB1FEE1FFF1FA217B307E4070F
:1008F000F50720F0A21BB30BE40BF50B661F771F67
:10090000881F991F1A9469F7609570958095909546
:100910009B01AC01BD01CF010895EE0FFF1F0590B3
:10092000F491E02D099481E090E0F8940C949804FF
:04093000F894FFCF69
:10093400000000003D01A600D50084010601E4008A
:10094400F8000D0A0053657269616C20436F6D6D88
:10095400756E69636174696F6E204F4B2100627517
:100964006C62206C6F77004C4544206C6F770000FC
:00000001FF
