:100000000C945D000C9485000C9485000C94850084
:100010000C9485000C9485000C9485000C9485004C
:100020000C9485000C9485000C9485000C9485003C
:100030000C9485000C9485000C9485000C9485002C
:100040000C947C070C9485000C944A070C942407AC
:100050000C9485000C9485000C9485000C9485000C
:100060000C9485000C94850000000008000201003B
:100070000003040700000000000000000000000072
:10008000250028002B0000000000240027002A0083
:10009000040404040404040402020202020203032E
:1000A0000303030301020408102040800102040836
:1000B0001020010204081020C60711241FBECFEF34
:1000C000D8E0DEBFCDBF11E0A0E0B1E0E6E7F4E1AB
:1000D00002C005900D92A63BB107D9F722E0A6EB2E
:1000E000B1E001C01D92AC3BB207E1F710E0CDE5F5
:1000F000D0E004C02197FE010E941F0ACC35D10731
:10010000C9F70E942A080C94390A0C94000090E068
:10011000FC01EC55FF4F2491FC01E057FF4F849107
:10012000882399F090E0880F991FFC01EA57FF4F50
:10013000A591B491FC01E458FF4F859194918FB73C
:10014000F894EC91E22BEC938FBF0895CF92DF925D
:10015000EF92FF920F931F93CF93DF936C017A017D
:100160008B01C0E0D0E0CE15DF0589F0D8016D919C
:100170008D01D601ED91FC910190F081E02DC60139
:100180000995892B11F47E0102C02196ECCFC7019D
:10019000DF91CF911F910F91FF90EF90DF90CF9063
:1001A0000895089580E090E00895FC01538D448DFA
:1001B000252F30E0842F90E0821B930B541710F012
:1001C000CF96089501970895FC01918D828D98171F
:1001D00061F0828DDF01A80FB11D5D968C91928D2B
:1001E0009F5F9F73928F90E008958FEF9FEF089528
:1001F000FC01918D828D981731F0828DE80FF11DF1
:10020000858D90E008958FEF9FEF0895FC01918D0B
:10021000228D892F90E0805C9F4F821B91098F7304
:10022000992708958BED91E00E94060121E0892B2A
:1002300009F420E0822F0895FC01848DDF01A80FCE
:10024000B11DA35ABF4F2C91848D90E001968F73FE
:100250009927848FA689B7892C93A089B1898C911D
:1002600080648C93938D848D981306C00288F389E3
:10027000E02D80818F7D80830895EF92FF920F9310
:100280001F93CF93DF93EC0181E0888F9B8D8C8D42
:10029000981305C0E889F989808185FD24C0F62E70
:1002A0000B8D10E00F5F1F4F0F731127E02E8C8D09
:1002B000E8120CC00FB607FCFACFE889F9898081F3
:1002C00085FFF5CFCE010E941C01F1CF8B8DFE0181
:1002D000E80FF11DE35AFF4FF0820B8FEA89FB898B
:1002E0008081806207C0EE89FF896083E889F9898F
:1002F00080818064808381E090E0DF91CF911F91C5
:100300000F91FF90EF900895CF93DF93EC01888DCC
:100310008823C9F0EA89FB89808185FD05C0A88909
:10032000B9898C9186FD0FC00FB607FCF5CF80818F
:1003300085FFF2CFA889B9898C9185FFEDCFCE01D9
:100340000E941C01E7CFDF91CF91089580E090E0FB
:10035000892B29F00E94120181110C94000008954C
:1003600090E0FC01E859FF4F3491FC01EC55FF4F40
:100370002491FC01E057FF4FE491EE2309F43BC0C8
:10038000332339F1333091F038F43130A9F0323081
:1003900001F584B58F7D12C0373091F03830A1F06F
:1003A0003430B9F4809180008F7D03C0809180004B
:1003B0008F77809380000DC084B58F7784BD09C08E
:1003C0008091B0008F7703C08091B0008F7D8093C3
:1003D000B000F0E0EE0FFF1FE458FF4FA591B4917D
:1003E0008FB7F894EC91611103C020952E2301C0C2
:1003F0002E2B2C938FBF08953FB7F8948091CF0197
:100400009091D001A091D101B091D20126B5A89BC5
:1004100005C02F3F19F00196A11DB11D3FBFBA2F96
:10042000A92F982F8827820F911DA11DB11DBC01F6
:10043000CD0142E0660F771F881F991F4A95D1F7BB
:1004400008958F929F92AF92BF92CF92DF92EF92D8
:10045000FF920E94FC014B015C0184EFC82EDD2459
:10046000D394E12CF12C0E94FC01DC01CB01881912
:100470009909AA09BB09883E9340A105B10558F026
:1004800021E0C21AD108E108F10888EE880E83E065
:10049000981EA11CB11CC114D104E104F10419F788
:1004A000FF90EF90DF90CF90BF90AF909F908F9094
:1004B00008952FB7F8946091CB017091CC01809191
:1004C000CD019091CE012FBF08956630B0F4FC01AC
:1004D0002BE0629FE00DF11D11248285982F9F7003
:1004E00061F0807E828711821082128213821482D0
:1004F0001582168217821086118608956093C601B0
:100500007093C7018093C8019093C901DC01CB01AE
:10051000845D9E4FAF4FBF4F8093C2019093C30144
:10052000A093C401B093C50182E090E09093C10113
:100530008093C0010E9459026093BC017093BD0179
:100540008093BE019093BF010895CF92DF92EF9206
:10055000FF920F931F930E945902C090BC01D0904C
:10056000BD01E090BE01F090BF018B019C010C1910
:100570001D092E093F098091C6019091C701A091E4
:10058000C801B091C901083E134021053105D0F0E2
:100590000196A11DB11D8093C6019093C701A09340
:1005A000C801B093C901B701A60148515C4F6F4F14
:1005B0007F4F4093BC015093BD016093BE01709387
:1005C000BF01C9CF4091C2015091C3016091C401E4
:1005D0007091C50184179507A607B70788F1E091C8
:1005E000BA01F091BB01309759F109956115710578
:1005F0008105910519F00E947E0222C08091C601FA
:100600009091C701A091C801B091C901845D9E4F2E
:10061000AF4FBF4F8093C2019093C301A093C40119
:10062000B093C50181E090E02091C0013091C101FB
:10063000232B11F480E090E09093C1018093C001DE
:100640006091C6017091C7018091C8019091C90164
:100650001F910F91FF90EF90DF90CF9008952F9210
:100660003F924F925F926F927F928F929F92AF9242
:10067000BF92CF92DF92EF92FF92CF93DF93CDB7ED
:10068000DEB728970FB6F894DEBF0FBECDBF1C01B2
:100690000E94A5026B017C01D1011A968C911A97D8
:1006A000982F9F702EE0290F2F70233008F039C14A
:1006B00016964D915D916D917C911997C416D50652
:1006C000E606F70608F42DC1923061F412968D917A
:1006D0009D910D90BC91A02DF10186839783A087F9
:1006E000B1871FC1933009F050C0D10112968D908F
:1006F0009D90AD90BC9015970E94A50220E8422ED7
:1007000021E5522E66246394712CA30192010E946C
:10071000DE0960E871E581E090E00E94BA09DC0141
:10072000CB01880D991DAA1DBB1DF101828093800C
:10073000A480B580C816D906EA06FB06A8F0C70152
:10074000B601A30192010E94DE092F5F3F4F4F4F78
:100750005F4F60E871E581E090E00E94BA09860E83
:10076000971EA81EB91EA5C0C701B601A30192011C
:100770000E94DE0960E871E581E090E00E94BA091C
:10078000860E971EA81EB91EC2C0943009F0C5C0BF
:10079000D10112964D905D906D907C9015970E94BE
:1007A000A50269837A838B839C830E94A5024B01F7
:1007B0005C010E94A5026D837E838F8398872981C7
:1007C0003A814B815C81240D351D461D571D2983BF
:1007D0003A834B835C8380E8482E81E5582E66245B
:1007E0006394712CC501B401A30192010E94DE093A
:1007F00089809A80AB80BC80861A970AA80AB90AB9
:100800006D817E818F819885A30192010E94DE090E
:10081000CA01B9016C5F7F4F8F4F9F4F27E030E0D7
:1008200040E050E00E94DE099B01AC0160E871E508
:1008300081E090E00E94BA09A5019401261B370BC4
:10084000480B590BF10182809380A480B580C216B9
:10085000D306E406F506A8F1F0E88F0EFAE39F1E32
:10086000F9E0AF1EB11C8C0C9D1CAE1CBF1CC70157
:10087000B601A30192010E94DE09861A970AA80A0E
:10088000B90ACA01B9016C5F7F4F8F4F9F4F27E0B4
:1008900030E040E050E00E94DE099B01AC0160E8DE
:1008A00071E581E090E00E94BA09861A970AA80AC9
:1008B000B90AD10116968D929D92AD92BC9219976C
:1008C00030C08C0C9D1CAE1CBF1CC701B601A3011F
:1008D00092010E94DE09861A970AA80AB90ACA017B
:1008E000B9016C5F7F4F8F4F9F4F27E030E040E0B2
:1008F00050E00E94DE099B01AC0160E871E581E0F7
:1009000090E00E94BA09861A970AA80AB90AF1016A
:1009100086829782A086B18604C08F7ED1011A9606
:100920008C93F10182858F70813061F48281938193
:10093000A481B581C80ED91EEA1EFB1EC682D782CD
:10094000E086F18628960FB6F894DEBF0FBECDBFC5
:10095000DF91CF91FF90EF90DF90CF90BF90AF905D
:100960009F908F907F906F905F904F903F902F90CF
:1009700008958F929F92BF92CF92DF92EF92FF9253
:100980000F931F93CF93DF931F92CDB7DEB76B0109
:100990007C014A01C8010297039728F0C80101971A
:1009A000029788F40AC029830E94A5022981611553
:1009B000724E8F4D914090F755C0C114D104E1049F
:1009C000F10409F44FC0E0E0F0E09BE0BE2E9E9FF2
:1009D000B0019F9F700D1124AB014E575D4FDA019E
:1009E0008C918F70D1F568587D4FDB018D929C9270
:1009F000DA018C9120FB85F90F70807F082B0C9316
:100A0000DB011296CD92DD92ED92FC9215970F705C
:100A100011F1015F0F70023020F4CD28CE28CF28CD
:100A200019F18BE08E9F90018F9F300D1124C90129
:100A300088589D4FDC014D915C911197452BA1F099
:100A4000F901EE57FD4F2081206120831A962C91E9
:100A500024FD0E942F038B2D14C03196E630F10542
:100A600009F0B4CF8FEF0DC02BE02E9FC0012F9F58
:100A7000900D1124FC01EE57FD4F80818F7E808305
:100A8000EACF0F90DF91CF911F910F91FF90EF90E0
:100A9000DF90CF90BF909F908F9008954F925F927C
:100AA0006F927F928F929F92AF92BF92CF92DF927E
:100AB000EF92FF920F931F93CF93DF934B015C0153
:100AC0008091B6019091B701A091B801B091B901A0
:100AD00088169906AA06BB0609F4C2C08CE3C82E84
:100AE000D12CE12CF12CC501B401A70196010E9483
:100AF000DE096093D401CA01B901A70196010E94E1
:100B0000DE096093D501CA01B90128E130E040E077
:100B100050E00E94DE0969017A016093D601CA01A2
:100B2000B9016C5F7F4F8F4F9F4F27E030E040E06F
:100B300050E00E94DE096F5F6093D701412C512C79
:100B4000320140E004E610E0C0E9D1E0242F30E0BB
:100B50002E54384FF901E370FF27309789F4C9010B
:100B6000B8010E94CA09892B31F4C901BE010E9453
:100B7000CA09892B29F48EE691E0A0E0B0E004C018
:100B80008DE691E0A0E0B0E0480E591E6A1E7B1E83
:100B9000D301C201AA27BB27C816D906EA06FB065D
:100BA00010F04F5FD3CF4093DA01309799F4C90129
:100BB00064E670E00E94CA09892B39F4C90160E932
:100BC00071E00E94CA09892B29F48EE691E0A0E029
:100BD000B0E004C08DE691E0A0E0B0E0481A590A08
:100BE0006A0A7B0AC418D508E608F708C90164E652
:100BF00070E00E94CA09EC01C90160E971E00E943D
:100C0000CA09A0E0B1E020E0213039F4309749F47E
:100C1000209729F4009729F402C04C9103C04DE1BC
:100C200001C04CE150E060E070E0C416D506E60675
:100C3000F70640F0C41AD50AE60AF70A2F5F1196A4
:100C40002C3011F72F5F2093D901C394C092D801A3
:100C50008092B6019092B701A092B801B092B9010A
:100C6000DF91CF911F910F91FF90EF90DF90CF9088
:100C7000BF90AF909F908F907F906F905F904F90BC
:100C80000895009769F0FC0101900020E9F7319781
:100C9000AF01481B590BBC018BED91E00C94A600F1
:100CA00080E090E00895CF93DF930E944106EC012D
:100CB0008EE191E00E9441068C0F9D1FDF91CF9144
:100CC000089581E291E00C9453068AE391E00C943C
:100CD000530682E591E00C9453068EE691E00E9463
:100CE000530661E08CE00E94B0010E94210260E0A6
:100CF0008CE00C94B00185EA91E00C9453068DE7EA
:100D000091E00E9453066091D30188E792E00E942F
:100D100065028FEF8093D30161E08DE00E94B00106
:100D20000E94210260E08DE00C94B0018F929F92AE
:100D3000AF92BF920F931F93CF93DF93CDB7DEB7E0
:100D4000A1970FB6F894DEBF0FBECDBF19A24230F7
:100D500008F44AE08E010F5D1F4F842E912CA12CC8
:100D6000B12CA50194010E94DE09E62FB901CA0148
:100D700001501109EA3014F4E05D01C0E95CD801CA
:100D8000EC93232B242B252B61F7C8010E944106ED
:100D9000A1960FB6F894DEBF0FBECDBFDF91CF9105
:100DA0001F910F91BF90AF909F908F900895CF9219
:100DB000DF92EF92FF92CF93DF936B017C01E09182
:100DC000DB01F091DC010190F081E02D6DE28BED13
:100DD00091E00995EC0166277727CB016C197D0915
:100DE0008E099F094AE00E9496068C0F9D1FDF9195
:100DF000CF91FF90EF90DF90CF900895CF93DF9346
:100E0000EC0184EB91E00E944106CA30D1055CF40C
:100E1000E091DB01F091DC010190F081E02D60E3D5
:100E20008BED91E00995BE01DD0F880B990B97FFC3
:100E300004C0DF91CF910C94D7064AE0DF91CF91A7
:100E40000C9496060E94340A1F920F920FB60F92CE
:100E500011242F933F934F935F936F937F938F93BF
:100E60009F93AF93BF93EF93FF938BED91E00E941D
:100E70001C01FF91EF91BF91AF919F918F917F9155
:100E80006F915F914F913F912F910F900FBE0F90F7
:100E90001F9018951F920F920FB60F9211242F9347
:100EA0008F939F93EF93FF93E091EB01F091EC010F
:100EB0008081E091F101F091F20182FD12C09081F8
:100EC0008091F4018F5F8F732091F501821751F0AB
:100ED000E091F401F0E0E552FE4F958F8093F4012C
:100EE00001C08081FF91EF919F918F912F910F9081
:100EF0000FBE0F901F9018951F920F920FB60F9272
:100F000011242F933F938F939F93AF93BF9380911F
:100F1000CB019091CC01A091CD01B091CE01309147
:100F2000CA0123E0230F2D3720F40196A11DB11D26
:100F300005C026E8230F0296A11DB11D2093CA010A
:100F40008093CB019093CC01A093CD01B093CE01BF
:100F50008091CF019091D001A091D101B091D201A7
:100F60000196A11DB11D8093CF019093D001A09354
:100F7000D101B093D201BF91AF919F918F913F91D9
:100F80002F910F900FBE0F901F901895CF93109236
:100F9000DE011092DD0188EE93E0A0E0B0E08093E6
:100FA000DF019093E001A093E101B093E20180E1C1
:100FB00091E09093DC018093DB0185EC90E09093CD
:100FC000E8018093E70184EC90E09093EA0180933C
:100FD000E90180EC90E09093EC018093EB0181ECCF
:100FE00090E09093EE018093ED0182EC90E090937D
:100FF000F0018093EF0186EC90E09093F2018093F2
:10100000F1011092F4011092F5011092F601109284
:10101000F701E8E7F2E08285807C828716821782FA
:101020001086118612821382148215821182108218
:101030003B9682E0EA3BF80771F71092BA02C0E0F3
:101040006C2F88E792E00E946502CF5FC630C1F73F
:10105000CF910895789484B5826084BD84B5816011
:1010600084BD85B5826085BD85B5816085BD809173
:101070006E00816080936E001092810080918100EB
:1010800082608093810080918100816080938100E3
:10109000809180008160809380008091B1008460A5
:1010A0008093B1008091B00081608093B000809106
:1010B0007A00846080937A0080917A0082608093C5
:1010C0007A0080917A00816080937A0080917A0022
:1010D000806880937A001092C100E091EB01F0915A
:1010E000EC0182E08083E091E701F091E801108259
:1010F000E091E901F091EA018FEC80831092F30115
:10110000E091EF01F091F00186E08083E091ED0144
:10111000F091EE01808180618083E091ED01F0919A
:10112000EE01808188608083E091ED01F091EE0115
:10113000808180688083E091ED01F091EE018081F3
:101140008F7D808389E28093DA0181E08093D901E9
:101150008093D80188E08093D6018DE18093D501FA
:101160008DE28093D40122EB37E080E8C82E8FE334
:10117000D82E81E1E82E8DE4F82EE4E6F0E0C0E917
:10118000D1E0C90183709927892B99F4C901BF0166
:101190000E94CA09892B31F4C901BE010E94CA0903
:1011A000892B39F480E8C80E81E5D81E81E0E81E5D
:1011B000F11C2F5F3F4F2B3D87E0380711F7C70128
:1011C000B601675878488F4F9F4F0E947E0203E018
:1011D00010E020E041E656E068E877E780E090E044
:1011E0000E94B90420E045E656E06CE979EF80E022
:1011F00090E00E94B90404E010E020E049E656E0E7
:1012000066EA70E688E090E00E94B90401E010E030
:1012100020E04DE656E063E070E080E090E00E9460
:10122000B90420E04BE756E062E070E080E090E037
:101230000E94B9048093D30121E04FE756E06AE0B1
:1012400070E080E090E00E94B9048CE00E9487008A
:101250008DE00E94870060E08CE00E94B00160E0B9
:101260008DE00E94B001CBE0D1E00E94A5020E9477
:101270004E056091D60170E080E090E04AE00E9467
:1012800096060E94A5020E944E058091D50190E02D
:101290000E94FE060E94A5020E944E058091D40184
:1012A00090E00E94FE068EE191E00E9441060E94BD
:1012B00059024B015C010E945902DC01CB018819E3
:1012C0009909AA09BB09893E9340A105B10508F017
:1012D00045C08091BA028111EECFD093BA0210922C
:1012E000BB02E091BB02E630B0F5CE9FF0011124C5
:1012F000EE57FD4F808184FF28C00E94A5022091F7
:10130000BB02C29FA0011124DA01A858BD4F169656
:10131000CD90DD90ED90FC9019976C157D058E05B4
:101320009F0598F0ED90FC901197FA01EE57FD4F54
:10133000808185FF16C0622F88E792E00E946502D7
:10134000E114F10411F0F70109958091BB028F5F60
:101350008093BB02C6CF1092BA02ADCF0E94A60105
:1013600084CF1A968C911A9784FFEACFCD010E9400
:101370002F03E6CFDB018F939F930E94000ABF915A
:10138000AF91A29F800D911DA39F900DB29F900DD4
:101390001124089597FB072E16F4009407D077FDCB
:1013A00009D00E940B0A07FC05D03EF49095819568
:1013B0009F4F0895709561957F4F0895A1E21A2E71
:1013C000AA1BBB1BFD010DC0AA1FBB1FEE1FFF1FE9
:1013D000A217B307E407F50720F0A21BB30BE40B39
:1013E000F50B661F771F881F991F1A9469F7609580
:1013F0007095809590959B01AC01BD01CF0108953A
:101400000E94250AA59F900DB49F900DA49F800D6A
:10141000911D11240895AA1BBB1B51E107C0AA1FEF
:10142000BB1FA617B70710F0A61BB70B881F991F85
:101430005A95A9F780959095BC01CD010895EE0FBE
:10144000FF1F0590F491E02D0994A29FB001B39F76
:10145000C001A39F700D811D1124911DB29F700DBD
:10146000811D1124911D089581E090E0F8940C9461
:06147000390AF894FFCFD9
:101476001F1C1F1E1F1E1F1F1E1F1E1F00000000F9
:101486003D01A600D50084010601E400F8000D0A1E
:1014960000416C61726D3A202D207475726E206C5D
:1014A6006967687473206F666600416C61726D3A95
:1014B600202D207475726E206C6967687473206FB6
:1014C6006E00416C61726D3A202D20697473204D57
:1014D6006F6E646179204D6F726E696E670035209C
:1014E6007365636F6E642074696D65720054686914
:1014F600732074696D6572206F6E6C7920747269E1
:101506006767657273206F6E63652C2073746F70E6
:10151600207468652032207365636F6E6420746979
:061526006D6572003A0041
:107E0000112484B714BE81FFF0D085E080938100F7
:107E100082E08093C00088E18093C10086E0809377
:107E2000C20080E18093C4008EE0C9D0259A86E02C
:107E300020E33CEF91E0309385002093840096BBD3
:107E4000B09BFECF1D9AA8958150A9F7CC24DD24C4
:107E500088248394B5E0AB2EA1E19A2EF3E0BF2EE7
:107E6000A2D0813461F49FD0082FAFD0023811F036
:107E7000013811F484E001C083E08DD089C08234E0
:107E800011F484E103C0853419F485E0A6D080C0E4
:107E9000853579F488D0E82EFF2485D0082F10E0AE
:107EA000102F00270E291F29000F111F8ED06801E7
:107EB0006FC0863521F484E090D080E0DECF843638
:107EC00009F040C070D06FD0082F6DD080E0C81688
:107ED00080E7D80618F4F601B7BEE895C0E0D1E017
:107EE00062D089930C17E1F7F0E0CF16F0E7DF06D8
:107EF00018F0F601B7BEE89568D007B600FCFDCFD4
:107F0000A601A0E0B1E02C9130E011968C91119780
:107F100090E0982F8827822B932B1296FA010C0160
:107F200087BEE89511244E5F5F4FF1E0A038BF0790
:107F300051F7F601A7BEE89507B600FCFDCF97BE46
:107F4000E89526C08437B1F42ED02DD0F82E2BD052
:107F50003CD0F601EF2C8F010F5F1F4F84911BD097
:107F6000EA94F801C1F70894C11CD11CFA94CF0C13
:107F7000D11C0EC0853739F428D08EE10CD085E9AC
:107F80000AD08FE07ACF813511F488E018D01DD067
:107F900080E101D065CF982F8091C00085FFFCCF94
:107FA0009093C60008958091C00087FFFCCF809118
:107FB000C00084FD01C0A8958091C6000895E0E648
:107FC000F0E098E1908380830895EDDF803219F02E
:107FD00088E0F5DFFFCF84E1DECF1F93182FE3DFCA
:107FE0001150E9F7F2DF1F91089580E0E8DFEE27F6
:047FF000FF270994CA
:027FFE00040479
:0400000300007E007B
:00000001FF
